:0400000007EF00F016
:0A000800208206ED04F0D0EF04F0B2
:100800000040792430191202780010000600FACF57
:1008100001F0FBCF02F0E9CF03F0EACF04F0E1CF23
:1008200005F0E2CF06F0D9CF07F0DACF08F0F3CF2A
:1008300009F0F4CF0AF0F6CF0BF0F7CF0CF0F8CFB9
:100840000DF0F5CF0EF020C00FF021C010F022C047
:1008500011F023C012F09EA223D09E928380838247
:100860008384154A162A15041610D8A404D01FC074
:1008700081FF839015D0020E15181610D8A404D04D
:100880001EC081FF83920CD0030E15181610D8A439
:1008900007D01DC081FF8394000E166E000E156EEA
:1008A00012C023F011C022F010C021F00FC020F0C0
:1008B0000EC0F5FF0DC0F8FF0CC0F7FF0BC0F6FF30
:1008C0000AC0F4FF09C0F3FF08C0DAFF07C0D9FF70
:1008D00006C0E2FF05C0E1FF04C0EAFF03C0E9FF74
:1008E00002C0FBFF01C0FAFF20921100CA50FC0BAE
:1008F0000109CA6ECA96CA98CA9ACA9C640ECB6E7F
:100900009D82CA84000E956E000E936EF28EF28C5C
:10091000010E1B24F66E080E1C20F76E0800F5CFA2
:100920001FF0010E1924F66E080E1A20F76E08004B
:10093000F5CF1EF0010E1724F66E080E1820F76E84
:100940000800F5CF1DF0174A182A0A0E17181810BC
:10095000D8A41AD0194A1A2A000E186E000E176E63
:100960000A0E19181A10D8A40FD01B4A1C2A000E00
:100970001A6E000E196E0A0E1B181C10D8A404D093
:10098000000E1C6E000E1B6E060E146E130E136E00
:10099000AE0EE82EFED7132EFCD7142EFAD7B8D7FA
:1009A00000EE15F0080EEE6AE806FDE120902092B8
:0E09B000000EF86E080EF76E000176EF04F0F0
:020000040020DA
:08000000FFFFFFFFFFFFFFFF00
:020000040030CA
:0E00000000001F1EFF8185FF0FC00FE00F40A4
:00000001FF
