:020000040000FA
:040000002AEF00F0F3
:020004000000FA
:040008003AEF00F0DB
:04000C009B0E006ED9
:1000100000000000000000000000000000000000E0
:1000200000000000002E08EF00F01200F70E016E35
:1000300006EC00F0012E18EF00F01200020E026E26
:1000400016EC00F0022E20EF00F0120083280700CB
:10005000836E1200956A836A030E936EF288F086AF
:10006000F28EF29C000E036E1EEC00F003B026EC44
:1000700000F0FAD7F2B203D0F0B004D01000F29240
:0C00800003701000F0900390836A1000E1
:020000040030CA
:0100000000FF
:0100010005F9
:010002001FDE
:010003001EDE
:010005008179
:010006008574
:010008000FE8
:01000900C036
:01000A000FE6
:01000B00E014
:01000C000FE4
:01000D0040B2
:00000001FF
