:1000000007EF00F0FF00FF004A8240ED0EF0D9EF4D
:1000100011F0FF00FF00FF00FF00FF00FF00FF00E6
:1008000000010000000A00000064000000E803008E
:100810000010270000A086010040420F008096983B
:100820000000E1F50500CA9A3B00803F002041002E
:10083000C842007A44401C4650C347247449971864
:100840004BBCBE4C6B6E4E03155079AD60F34971D5
:1008500000803FCDCC3DD7233C12833AB7D138C678
:100860002737388635C0D633CC2B32708930E7DB5A
:100870002EE53C1E42A20D566F6C747A203D202559
:100880002E32660000006B0E0001776F000E786F4D
:100890004FD3250E8A19D8B404D08A51E7EC11F051
:1008A00047D3000E00017A6F000E796F69C0F6FF22
:1008B0006AC0F7FF0800F5502E0AD8A42FD07A8D11
:1008C000694B6A2B000E866F000E856F1CD085C0A9
:1008D00022F086C023F0000E256E0A0E246E7AECFC
:1008E00011F069C0F6FF6AC0F7FF0800F550222634
:1008F000000E2322D00E22240001856FFF0E23203C
:10090000866F694B6A2B69C0F6FF6AC0F7FF080063
:10091000F550B1EC11F0D8A00AD0D9D7000E0001E3
:10092000866F000E856F7A8902D07A8512D069C0F1
:10093000F6FF6AC0F7FF0001694B6A2B0800F5CF8C
:100940008AF08A51000AD8B41200660AD8B4EDD7EA
:10095000EFD2070E7A15D8B4B4D27AA904D0000E1B
:10096000866F060E856F77C0D9FF78C0DAFFDECFBD
:1009700087F0DECF88F0DDCF89F0030E7727000EF9
:10098000782389AF11D087C014F088C015F089C0D2
:1009900016F08DEC11F014C087F015C088F016C069
:1009A00089F0030E00017913000E806F000E7F6F37
:1009B000875188118911D8B486D0820E6E6FFF0ED0
:1009C0006F6F87C070F088C071F089C072F08AC004
:1009D00073F0100E05D0D8907333723371337033C7
:1009E000E82EF9D770516E257F6F000E6F21806F52
:1009F0007F07D8A080077FC022F080C023F0000EC0
:100A0000256E030E246E7AEC11F022C07FF023C015
:100A100080F07FC01AF080C01BF0000E1D6E0A0E21
:100A20001C6E93EC0FF01AC07FF01BC080F0000129
:100A300080AF03D07F07D8A080077F510008A6ECC5
:100A400007F037C081F038C082F039C083F081C030
:100A500028F082C029F083C02AF087C02BF088C01C
:100A60002CF089C02DF053EC0DF028C081F029C086
:100A700082F02AC083F081C014F082C015F083C0D8
:100A800016F0000E176E800E186E3F0E196E4BECAE
:100A90000FF0D8B005D000017F07D8A0800713D091
:100AA00081C014F082C015F083C016F0000E176EDE
:100AB000200E186E410E196E4BEC0FF0D8A003D02B
:100AC00000017F4B802B000186BF06D086511BE1C1
:100AD0000D0E855DD8B017D087C041F088C042F0B8
:100AE00089C043F08551AAEC09F037C044F038C002
:100AF00045F039C046F0D3EC0AF041C087F042C05F
:100B000088F043C089F0000180BF06D0805120E109
:100B10000A0E7F5DD8B01CD0875188118911D8B4D6
:100B200056D087C03EF088C03FF089C040F0D7EC77
:100B30000CF03E503F1040104110D8A448D00001A6
:100B400080BF45D0805104E1020E7F5DD8A03FD028
:100B500081C014F082C015F083C016F0700E176EBD
:100B6000890E186E400E196E4BEC0FF0D8B003D002
:100B70000001F70E02D00001F80E7F27FF0E802340
:100B80007F51A6EC07F037C081F038C082F039C041
:100B900083F087C014F088C015F089C016F081C0BA
:100BA00017F082C018F083C019F0AAEC0BF014C043
:100BB0007BF015C07CF016C07DF017C07EF0000EF3
:100BC0000001876F000E886F000E896F33D087C0D9
:100BD0003EF088C03FF089C040F0D7EC0CF03EC03A
:100BE0007BF03FC07CF040C07DF041C07EF087C00C
:100BF00063F088C064F089C065F07BC01CF07CC0E5
:100C00001DF07DC01EF07EC01FF0FCEC10F01CC07B
:100C100066F01DC067F01EC068F02AEC11F063C0DA
:100C200087F064C088F065C089F0000E0001806F15
:100C3000000E7F6F010E8A6F0A0E8A19D8B418D081
:100C40008A51040D010EF324F66E080EF420F76E9F
:100C50000900F5507B5D0900F5507C590900F550FD
:100C60007D590900F5507E59D8A002D08A2BE4D7CF
:100C7000030E79156E6F000E7A156F6F6E516F113E
:100C8000D8B44AD02D0EE7EC11F046D07BC014F05A
:100C90007CC015F07DC016F07EC017F000018A51AF
:100CA000040D010EF324F66E080EF420F76E090011
:100CB000F5CF18F00900F5CF19F00900F5CF1AF0BB
:100CC0000A00F5CF1BF0D5EC0FF014C081F015C071
:100CD00082F016C083F017C084F081C014F082C087
:100CE00015F083C016F084C017F00A0E186E000EBF
:100CF000196E000E1A6E000E1B6EC9EC10F014C0B7
:100D000081F015C082F016C083F017C084F0000196
:100D10008151300FE7EC11F000018A078A29D8B41D
:100D200008D0B4D7300EE7EC11F000017F07D8A04F
:100D3000800780BF05D08051F5E17F05D8B0F2D79C
:100D400086BF09D0865104E1090E855DD8A003D085
:100D5000080E8A6F02D085C08AF08A51855F000E26
:100D60008ABFFF0E865B8A51D8B403D02E0EE7EC03
:100D700011F000018A51A6EC07F037C074F038C0BA
:100D800075F039C076F087C02BF088C02CF089C090
:100D90002DF074C028F075C029F076C02AF053EC0D
:100DA0000DF028C03EF029C03FF02AC040F0D7EC3B
:100DB0000CF03EC07BF03FC07CF040C07DF041C0F5
:100DC0007EF06DD07BC014F07CC015F07DC016F0B5
:100DD0007EC017F000018A51040D010EF324F66E57
:100DE000080EF420F76E0900F5CF18F00900F5CFD2
:100DF00019F00900F5CF1AF00A00F5CF1BF0D5EC79
:100E00000FF014C081F015C082F016C083F017C037
:100E100084F081C014F082C015F083C016F084C045
:100E200017F00A0E186E000E196E000E1A6E000EE4
:100E30001B6EC9EC10F014C081F015C082F016C012
:100E400083F017C084F000018151300FE7EC11F0FE
:100E50007BC014F07CC015F07DC016F07EC017F08A
:100E600000018A51040D010EF324F66E080EF420E1
:100E7000F76E0900F5CF18F00900F5CF19F0090059
:100E8000F5CF1AF00A00F5CF1BF0C9EC10F014C032
:100E90007BF015C07CF016C07DF017C07EF000011D
:100EA0008A078A29D8B408D08DD7300EE7EC11F024
:100EB00000018507D8A0860785518611D8B438D09F
:100EC000F4D785518611D8A408D07B517C117D11AF
:100ED0007E11D8A402D0854B862B800E8ABF7F0E50
:100EE0006E6F85518A5D8651800A6E59D8B003D0E5
:100EF00085C08AF010D08651800A6E6F8A51855D58
:100F0000800E8ABF7F0E6E59D8B005D08A51856F8A
:100F1000866B85BF8607030E79156E6F000E7A15F6
:100F20006F6F6E516F11D8B403D02D0EE7EC11F036
:100F300069C0F6FF6AC0F7FF0001694B6A2B080021
:100F4000F5CF8AF08A51D8B41200A3D43D6E3DAEDD
:100F500001D13D6C3D50800A120FD8A091D0000EF7
:100F6000256E030E246E000E1D6E0A0E1C6E000E02
:100F7000176E640E166E3D50146E156A14BE15067B
:100F800091EC10F014C01AF015C01BF093EC0FF0A8
:100F9000090E1A24226E000E1B20236E7AEC11F02B
:100FA000500E2224F66E080E2320F76E0900F5CFAE
:100FB0002BF00900F5CF2CF00A00F5CF2DF0000E34
:100FC0001D6E640E1C6E3D501A6E1B6A1ABE1B0607
:100FD00093EC0FF0120E1A24226E000E1B20236ECB
:100FE000000E256E030E246E7AEC11F0500E2224B2
:100FF000F66E080E2320F76E0900F5CF28F00900E1
:10100000F5CF29F00A00F5CF2AF053EC0DF028C0F7
:101010003AF029C03BF02AC03CF03AC028F03BC06F
:1010200029F03CC02AF0000E256E030E246E000E3F
:10103000176E0A0E166E3D50146E156A14BE150614
:1010400091EC10F014C022F015C023F07AEC11F0EE
:10105000500E2224F66E080E2320F76E0900F5CFFD
:101060002BF00900F5CF2CF00A00F5CF2DF053EC52
:101070000DF028C037F029C038F02AC039F012002E
:101080003D50800A750FD8A053D0000E1D6E0A0E79
:101090001C6E3D501A6E1B6A1ABE1B0693EC0FF0B5
:1010A000090E1A24226E000E1B20236E000E256EE0
:1010B000030E246E7AEC11F0500E2224F66E080E08
:1010C0002320F76E0900F5CF28F00900F5CF29F0AD
:1010D0000A00F5CF2AF0000E256E030E246E000ED6
:1010E000176E0A0E166E3D50146E156A14BE150664
:1010F00091EC10F014C022F015C023F07AEC11F03E
:10110000500E2224F66E080E2320F76E0900F5CF4C
:101110002BF00900F5CF2CF00A00F5CF2DF053ECA1
:101120000DF028C037F029C038F02AC039F012007D
:101130003D50030D500EF324F66E080EF420F76EAA
:101140000900F5CF37F00900F5CF38F00A00F5CFE8
:1011500039F012003D50800A120FD8A091D0000E35
:10116000256E030E246E000E1D6E0A0E1C6E000E00
:10117000176E640E166E3D50146E156A14BE150679
:1011800091EC10F014C01AF015C01BF093EC0FF0A6
:10119000090E1A24226E000E1B20236E7AEC11F029
:1011A000290E2224F66E080E2320F76E0900F5CFD3
:1011B0002BF00900F5CF2CF00A00F5CF2DF0000E32
:1011C0001D6E640E1C6E3D501A6E1B6A1ABE1B0605
:1011D00093EC0FF0120E1A24226E000E1B20236EC9
:1011E000000E256E030E246E7AEC11F0290E2224D7
:1011F000F66E080E2320F76E0900F5CF28F00900DF
:10120000F5CF29F00A00F5CF2AF053EC0DF028C0F5
:101210003AF029C03BF02AC03CF03AC028F03BC06D
:1012200029F03CC02AF0000E256E030E246E000E3D
:10123000176E0A0E166E3D50146E156A14BE150612
:1012400091EC10F014C022F015C023F07AEC11F0EC
:10125000290E2224F66E080E2320F76E0900F5CF22
:101260002BF00900F5CF2CF00A00F5CF2DF053EC50
:101270000DF028C037F029C038F02AC039F012002C
:101280003D50800A750FD8A053D0000E1D6E0A0E77
:101290001C6E3D501A6E1B6A1ABE1B0693EC0FF0B3
:1012A000090E1A24226E000E1B20236E000E256EDE
:1012B000030E246E7AEC11F0290E2224F66E080E2D
:1012C0002320F76E0900F5CF28F00900F5CF29F0AB
:1012D0000A00F5CF2AF0000E256E030E246E000ED4
:1012E000176E0A0E166E3D50146E156A14BE150662
:1012F00091EC10F014C022F015C023F07AEC11F03C
:10130000290E2224F66E080E2320F76E0900F5CF71
:101310002BF00900F5CF2CF00A00F5CF2DF053EC9F
:101320000DF028C037F029C038F02AC039F012007B
:101330003D50030D290EF324F66E080EF420F76ECF
:101340000900F5CF37F00900F5CF38F00A00F5CFE6
:1013500039F01200406E6D0E40649FD0000E256E75
:10136000030E246E000E1D6E0A0E1C6E000E176E0C
:10137000640E166E40C014F0156A91EC10F014C0A3
:101380001AF015C01BF093EC0FF0090E1A24226E10
:10139000000E1B20236E7AEC11F0500E2224F66E04
:1013A000080E2320F76E0900F5CF2BF00900F5CFCA
:1013B0002CF00A00F5CF2DF0000E1D6E640E1C6E91
:1013C00040C01AF01B6A93EC0FF0120E1A24226E22
:1013D000000E1B20236E000E256E030E246E7AEC89
:1013E00011F0500E2224F66E080E2320F76E09002D
:1013F000F5CF28F00900F5CF29F00A00F5CF2AF043
:1014000053EC0DF028C03DF029C03EF02AC03FF05B
:10141000000E256E030E246E000E176E0A0E166E59
:1014200040C014F0156A91EC10F014C022F015C001
:1014300023F07AEC11F0500E2224F66E080E2320D1
:10144000F76E0900F5CF2BF00900F5CF2CF00A005C
:10145000F5CF2DF03DC028F03EC029F03FC02AF066
:1014600053EC0DF028C03AF029C03BF02AC03CF004
:101470003AC028F03BC029F03CC02AF0000E2B6E89
:10148000000E2C6E3F0E2D6E53EC0DF028C037F081
:1014900029C038F02AC039F012000A0E406463D027
:1014A000000E256E030E246E000E176E0A0E166EC9
:1014B00040C014F0156A91EC10F014C022F015C071
:1014C00023F07AEC11F0500E2224F66E080E232041
:1014D000F76E0900F5CF2BF00900F5CF2CF00A00CC
:1014E000F5CF2DF0000E1D6E0A0E1C6E40C01AF0D6
:1014F0001B6A93EC0FF0090E1A24226E000E1B20BB
:10150000236E000E256E030E246E7AEC11F0500E41
:101510002224F66E080E2320F76E0900F5CF28F07E
:101520000900F5CF29F00A00F5CF2AF053EC0DF0B1
:1015300028C03DF029C03EF02AC03FF03DC028F051
:101540003EC029F03FC02AF0000E2B6E000E2C6E1C
:101550003F0E2D6E53EC0DF028C037F029C038F047
:101560002AC039F012004050030D500EF324F66EDD
:10157000080EF420F76E0900F5CF28F00900F5CF2A
:1015800029F00A00F5CF2AF0000E2B6E000E2C6E0B
:101590003F0E2D6E53EC0DF028C037F029C038F007
:1015A0002AC039F0120043C047F0486A496A423401
:1015B000473601E3488047500001626F46C047F05C
:1015C000486A496A4534473601E348804750616FAD
:1015D0006251D8B40BD06151625DD8B00ED0625167
:1015E00000086125476E180E476407D044C041F0DB
:1015F00045C042F046C043F012006151D8B40BD050
:101600006251615DD8B00ED0615100086225476E0D
:10161000180E476407D041C041F042C042F043C0B9
:1016200043F01200060E606F43BE608F46BE608DB1
:10163000428EFF0E4116FF0E4216000E4316458ED7
:10164000FF0E4416FF0E4516000E46166151625DF0
:10165000D8B01BD0D8904436453646366107625123
:101660006119D8B40DD0600760C047F0070E471667
:10167000D8B406D0EFD7D890433242324132622BF1
:1016800061516219D8B41FD0F6D76251615DD8B0EC
:101690001AD0D890413642364336620762516119FA
:1016A000D8B40DD0600760C047F0070E4716D8B415
:1016B00006D0EFD7D890463245324432612B615183
:1016C0006219D8A4F7D760AF0CD0FF0E411AFF0EF5
:1016D000421AFF0E431A010E4126000E4222000E4E
:1016E000432260AD0CD0FF0E441AFF0E451AFF0EC8
:1016F000461A010E4426000E4522000E4622000E18
:10170000606F41504426425045224350462246AE27
:101710000ED0FF0E441AFF0E451AFF0E461A010E98
:101720004426000E4522000E4622010E606F44C082
:1017300014F045C015F046C016F062C017F060C046
:1017400018F09FEC0EF014C041F015C042F016C026
:1017500043F0120016C01AF01B6A1C6A15341A36C0
:1017600001E31B801A50226E2250D8A409D0000E2B
:10177000146E000E156E000E166E000E176E12001F
:1017800019C01AF01B6A1C6A18341A3601E31B8050
:101790001A50216E2150D8A409D0000E146E000EEC
:1017A000156E000E166E000E176E1200158EFF0ECF
:1017B0001416FF0E1516000E1616188EFF0E1716AD
:1017C000FF0E1816000E1916000E1D6E000E1E6E6E
:1017D000000E1F6E000E206E7F0E225E2150980FAD
:1017E000225E180E216ED8901D361E361F3620360A
:1017F0001750145C1850155819501658D8A007D017
:101800001750145E1850155A1950165A1D80D8904A
:10181000143615361636212EE6D722AE16D02250B3
:10182000800A970FD8B009D0000E146E000E156E06
:10183000000E166E000E176E1200D89020321F3266
:101840001E321D32223EF9D715D0170E22640FD05A
:10185000000E146E000E156E000E166E000E176E42
:101860001200D8901D361E361F3620362206225012
:10187000D8A4F7D71DC014F01EC015F01FC016F075
:1018800020C017F01200163417341F6E1F50D8A452
:1018900009D0000E146E000E156E000E166E000EAE
:1018A000176E120019341A341E6E1E50D8A409D0B7
:1018B000000E146E000E156E000E166E000E176EE2
:1018C0001200168EFF0E1416FF0E1516FF0E1616BA
:1018D000000E1716198EFF0E1716FF0E1816FF0EA4
:1018E0001916000E1A16000E1A6E000E1B6E000E50
:1018F0001C6E000E1D6E7F0E1F5E1E50A00F1F5E21
:10190000200E1E6ED8901A361B361C361D36175008
:10191000145C18501558195016581A501758D8A05A
:1019200009D01750145E1850155A1950165A1A50EB
:10193000175A1A80D89014361536163617361E2EBA
:10194000E1D71FAE16D01F50800A9F0FD8B009D024
:10195000000E146E000E156E000E166E000E176E41
:101960001200D8901D321C321B321A321F3EF9D79A
:1019700015D01F0E1F640FD0000E146E000E156ED2
:10198000000E166E000E176E1200D8901A361B3617
:101990001C361D361F061F50D8A4F7D71AC014F0E6
:1019A0001BC015F01CC016F01DC017F0120040C07F
:1019B00042F0436A446A3F34423601E34380425076
:1019C0000001656F6551D8A409D0000E3E6E000E6F
:1019D0003F6E000E406E000E416E1200170E426EFA
:1019E0003EC043F03FC044F040C045F04228466E40
:1019F00004D0D890453244324332462EFAD7435071
:101A00000001606F3F8EFF0E3E16FF0E3F16000E68
:101A100040163E50616F3F50626F4050636F646B81
:101A20008E0E655F65AF16D06551800A8F0FD8B0F6
:101A300009D0000E3E6E000E3F6E000E406E000E8E
:101A4000416E1200D8906433633362336133653F73
:101A5000F9D715D0170E65650FD0000E3E6E000E3B
:101A60003F6E000E406E000E416E1200D89061373E
:101A700062376337643765076551D8A4F7D760517B
:101A8000D8B408D0641F631F621F616D000E62230B
:101A90006323642361C03EF062C03FF063C040F046
:101AA00064C041F012002AC02EF02F6A306A293437
:101AB0002E3601E32F802E50316E3150D8A407D03E
:101AC000000E286E000E296E000E2A6E12002DC028
:101AD0002EF02F6A306A2C342E3601E32F802E50E0
:101AE000366E3650D8A407D0000E286E000E296E30
:101AF000000E2A6E120036507B0F31262AC036F0B7
:101B00002D50361A800E3616298E2C8EFF0E2B166F
:101B1000FF0E2C16000E2D16000E326E000E336EC8
:101B2000000E346E070E356E28A006D02B503226DC
:101B30002C5033222D503422D8902A322932283288
:101B4000D8902B362C362D36352EEED7090E356E25
:101B500028A006D02B5032262C5033222D50342270
:101B6000D8902A3229322832D89034323332323265
:101B7000352EEED732C014F033C015F034C016F055
:101B800031C017F036C018F09FEC0EF014C028F0EA
:101B900015C029F016C02AF0120022C026F0276ACC
:101BA000286A2134263601E3278026502D6E2D50D9
:101BB000D8A407D0000E206E000E216E000E226EFB
:101BC000120025C026F0276A286A2434263601E34D
:101BD000278026502E6E2E50D8A407D0000E206EDF
:101BE000000E216E000E226E1200000E2A6E000EF4
:101BF0002B6E000E2C6E2E50890F2D5E22C02EF003
:101C000025502E1A800E2E16218EFF0E2016FF0E46
:101C10002116000E2216248EFF0E2316FF0E241608
:101C2000000E2516180E296ED8902A362B362C3623
:101C30002350205C2450215825502258D8A007D08A
:101C40002350205E2450215A2550225A2A80D890B1
:101C5000203621362236292EE7D72AC014F02BC091
:101C600015F02CC016F02DC017F02EC018F09FEC08
:101C70000EF014C020F015C021F016C022F01200A2
:101C80000600FACF02F0FBCF03F0E9CF04F0EACF71
:101C900005F0E1CF06F0E2CF07F0D9CF08F0DACFB8
:101CA00009F0F3CF0AF0F4CF0BF0F6CF0CF0F7CF3A
:101CB0000DF0F8CF0EF0F5CF0FF04AC010F04BC08A
:101CC00011F04CC012F04DC013F09EA212D09E92A3
:101CD00082B006D08BC0CBFF000ECC6E828009D0C4
:101CE00000018B510008016E0104CB6E000ECC6E1A
:101CF000829013C04DF012C04CF011C04BF010C0D8
:101D00004AF00FC0F5FF0EC0F8FF0DC0F7FF0CC082
:101D1000F6FF0BC0F4FF0AC0F3FF09C0DAFF08C0EA
:101D2000D9FF07C0E2FF06C0E1FF05C0EAFF04C01B
:101D3000E9FF03C0FBFF02C0FAFF4A9211001750EF
:101D4000D8B405D0145015101610D8A40CD0000E1D
:101D5000146E000E156E000E166E1200172AD89023
:101D6000163215321432000E1414196E000E1514AA
:101D70001A6EFE0E16141B6E19501A101B10D8B4D2
:101D80000CD0ECD7172A010E1426000E1522000ED7
:101D90001622D890163215321432000E1414196E11
:101DA000000E15141A6EFF0E16141B6E19501A1021
:101DB0001B10D8B406D0E6D71706D89014361536BF
:101DC000163615BE03D0020E1760F6D717A0159E63
:101DD000D8901732175016121850D8A4168E14C067
:101DE00014F015C015F016C016F01200600ED36E78
:101DF000F28EF28C7D0ECA6E9D828E0EC16E800EAA
:101E0000C26E960EC06EC280010E926E000E946E6F
:101E1000000E956E000E836E000E806E000E826EB8
:101E20007F0E00018B6FCA8456EC10F0C0EC11F0ED
:101E3000A60EE82EFED700D0CDEC11F0D8901532CA
:101E40001432D89015321432145000018B6F030EE7
:101E5000186E010E63EC11F0770E0001696F080E29
:101E60006A6F8B519FEC11F01CC020F01DC021F057
:101E70001EC022F0000E236E4C0E246E420E256E04
:101E8000CDEC0DF020C06BF021C06CF022C06DF0E5
:101E900043EC04F0CDD716AE16D014C01AF015C01E
:101EA0001BF016C01CF01A1E1B1E1C1E1A2A000E48
:101EB0001B221C22000E1A24146E000E1B20156E0D
:101EC000800E1C20166E19AE16D017C01AF018C05E
:101ED0001BF019C01CF01A1E1B1E1C1E1A2A000E15
:101EE0001B221C22000E1A24176E000E1B20186ED7
:101EF000800E1C20196E000E141A000E151A800E8A
:101F0000161A000E171A000E181A800E191A1750FA
:101F1000145C1850155819501658D8B002D0D890E3
:101F20001200D8801200000E1F6E1DAE06D01C6C71
:101F30001D1ED8B01D2A010E1F6E1BAE06D01A6CD6
:101F40001B1ED8B01B2A010E1F1A000E216E000E98
:101F5000206E1C501D10D8B41CD0010E1E6E04D073
:101F6000D8901C361D361E2A1DAEFAD7D8902036C2
:101F700021361C501A5C1D501B58D8A005D01C508F
:101F80001A5E1D501B5A2080D8901D321C321E2E06
:101F9000EDD71F50D8B404D0206C211ED8B0212A10
:101FA00020C01AF021C01BF01200000E1C6E000EA3
:101FB0001D6E000E1E6E000E1F6E185019101A10A6
:101FC0001B10D8B42AD0010E206E06D0D890183637
:101FD00019361A361B36202A1BAEF8D7D8901C3675
:101FE0001D361E361F361850145C195015581A50DD
:101FF00016581B501758D8A009D01850145E195005
:10200000155A1A50165A1B50175A1C80D8901B325A
:102010001A3219321832202EE1D71CC014F01DC01C
:1020200015F01EC016F01FC017F01200156E15C077
:1020300014F0010E1416143A83501418EF0B1418F0
:10204000836E15C014F0D8901432010E1416143A91
:10205000144683501418DF0B1418836E15C014F047
:10206000D8901432D8901432010E1416143A144633
:10207000144683501418BF0B1418836E15C014F047
:10208000D8901432D8901432D8901432010E14160D
:1020900014321432835014187F0B1418836E838209
:1020A000080EE82EFED700F0839212008398839AE0
:1020B000839C839E070E196E7D0EE82EFED7192E87
:1020C000FCD700F0030E16EC10F0070E196E7D0E13
:1020D000E82EFED7192EFCD700F0030E16EC10F0F8
:1020E000070E196E7D0EE82EFED7192EFCD700F0D4
:1020F000020E16EC10F0C80E00D0E82EFDD7280E08
:10210000166E000E4BEC11F00C0E166E000E4BEC22
:1021100011F0C0EC11F0060E166E000E4BEC11F033
:102120001200000E196E15AE06D0146C151ED8B034
:10213000152A010E196E17AE04D0166C171ED8B0F2
:10214000172A16501710D8B418D0010E186E04D0E4
:10215000D89016361736182A17AEFAD71650145CD0
:1021600017501558D8A004D01650145E1750155AA1
:10217000D89017321632182EF1D71950D8B404D08F
:10218000146C151ED8B0152A14C014F015C015F023
:102190001200185019101A101B10D8B424D0010EB8
:1021A0001C6E06D0D890183619361A361B361C2AE3
:1021B0001BAEF8D71850145C195015581A50165801
:1021C0001B501758D8A008D01850145E1950155A33
:1021D0001A50165A1B50175AD8901B321A321932FD
:1021E00018321C2EE7D714C014F015C015F016C015
:1021F00016F017C017F012008E0E246E06D0D8907D
:102200001F321E321D321C32242A000E1C14206E76
:10221000000E1D14216E000E1E14226EFF0E1F14E0
:10222000236E2050211022102310D8A4E8D71CC000
:1022300014F01DC015F01EC016F024C017F0000EDB
:10224000186E9FEC0EF014C01CF015C01DF016C0E7
:102250001EF012000001665167116811D8B406D053
:10226000000E661B000E671B800E681B63C041F0EA
:1022700064C042F065C043F066C044F067C045F0FA
:1022800068C046F0D3EC0AF041C063F042C064F08D
:1022900043C065F01200176E17B002D0839001D0D2
:1022A0008380210EE82EFED700F0839216380F0BA4
:1022B00016EC10F016500F0B16EC10F00D0EE82E69
:1022C000FED700F01200196E000E1A6E1904D8A481
:1022D00002D0800E1A6E020E1918D8A402D0C00EB9
:1022E0001A6E1A5018241A6E1AC016F0000E4BEC13
:1022F00011F0120022502402F3CF26F0F4CF27F081
:1023000022502502F350272623502402F35027267B
:1023100026C022F027C023F012001450151016100A
:10232000D8B406D0000E141A000E151A800E161A14
:1023300014C014F015C015F016C016F012001F6E70
:102340001F50146E156A166A8E0E176E000E186EE8
:102350009FEC0EF014C01CF015C01DF016C01EF04E
:102360001200166E000E156E3A0E166005D02F0E76
:10237000166402D0010E156E15C014F01430120050
:10238000010E166E000E4BEC11F0030E186E980E37
:10239000E82EFED7182EFCD71200000E176E000E86
:1023A000166EC282C2B2FED7C3CF14F0C4CF15F0EE
:1023B00012004A904A92000EF86E0001F6EF0EF0FD
:1023C000186E18C016F0010E4BEC11F01200196EC9
:1023D0001950E0EC11F01200FF00FF00FF00FF00B9
:020000040030CA
:0E000000000B1F1EFF8181FF0FC00FE00F409D
:00000001FF
