:0400000007EF00F016
:10000800178209ED00F094EF00F00600FACF01F036
:10001800FBCF02F0E9CF03F0EACF04F0E1CF05F01F
:10002800E2CF06F0D9CF07F0DACF08F0F3CF09F026
:10003800F4CF0AF0F6CF0BF0F7CF0CF0F8CF0DF0B5
:10004800F5CF0EF017C00FF018C010F019C011F05E
:100058001AC012F09EA22ED09E9215501610D8A447
:100068000BD013501410D8A407D0838083928394A4
:10007800000E166E010E19D015041610D8A40FD054
:1000880013501410D8A40BD0839083828394000E4D
:10009800166E010E156E000E146E010E0AD08390B6
:1000A80083928384000E166E000E156E000E146E79
:1000B800000E136E12C01AF011C019F010C018F01B
:1000C8000FC017F00EC0F5FF0DC0F8FF0CC0F7FF0A
:1000D8000BC0F6FF0AC0F4FF09C0F3FF08C0DAFF3F
:1000E80007C0D9FF06C0E2FF05C0E1FF04C0EAFF70
:1000F80003C0E9FF02C0FBFF01C0FAFF179211001D
:10010800030ECA12CA86CA88CA8ACA8CCA84DC0E76
:10011800CB6E9D82959095929594F28EF28CFFD736
:10012800166A156A146A136A17901792000184EF09
:0201380000F0D5
:020000040020DA
:08000000FFFFFFFFFFFFFFFF00
:020000040030CA
:0E00000000001F1EFF8385FF0FC00FE00F40A2
:00000001FF
